{
  "contractName": "Casino",
  "abi": [
    {
      "constant": true,
      "inputs": [],
      "name": "numberOfBets",
      "outputs": [
        {
          "name": "",
          "type": "uint256"
        }
      ],
      "payable": false,
      "stateMutability": "view",
      "type": "function"
    },
    {
      "constant": true,
      "inputs": [],
      "name": "minimumBet",
      "outputs": [
        {
          "name": "",
          "type": "uint256"
        }
      ],
      "payable": false,
      "stateMutability": "view",
      "type": "function"
    },
    {
      "constant": true,
      "inputs": [],
      "name": "maxAmountOfBets",
      "outputs": [
        {
          "name": "",
          "type": "uint256"
        }
      ],
      "payable": false,
      "stateMutability": "view",
      "type": "function"
    },
    {
      "constant": true,
      "inputs": [
        {
          "name": "",
          "type": "uint256"
        }
      ],
      "name": "players",
      "outputs": [
        {
          "name": "",
          "type": "address"
        }
      ],
      "payable": false,
      "stateMutability": "view",
      "type": "function"
    },
    {
      "constant": true,
      "inputs": [],
      "name": "totalBet",
      "outputs": [
        {
          "name": "",
          "type": "uint256"
        }
      ],
      "payable": false,
      "stateMutability": "view",
      "type": "function"
    },
    {
      "inputs": [
        {
          "name": "_minimumBet",
          "type": "uint256"
        }
      ],
      "payable": false,
      "stateMutability": "nonpayable",
      "type": "constructor"
    },
    {
      "payable": true,
      "stateMutability": "payable",
      "type": "fallback"
    },
    {
      "constant": false,
      "inputs": [],
      "name": "kill",
      "outputs": [],
      "payable": false,
      "stateMutability": "nonpayable",
      "type": "function"
    },
    {
      "constant": false,
      "inputs": [
        {
          "name": "number",
          "type": "uint256"
        }
      ],
      "name": "bet",
      "outputs": [],
      "payable": true,
      "stateMutability": "payable",
      "type": "function"
    },
    {
      "constant": true,
      "inputs": [
        {
          "name": "player",
          "type": "address"
        }
      ],
      "name": "checkPlayerExists",
      "outputs": [
        {
          "name": "",
          "type": "bool"
        }
      ],
      "payable": false,
      "stateMutability": "view",
      "type": "function"
    },
    {
      "constant": false,
      "inputs": [],
      "name": "generateNumberWinner",
      "outputs": [],
      "payable": false,
      "stateMutability": "nonpayable",
      "type": "function"
    },
    {
      "constant": false,
      "inputs": [
        {
          "name": "numberWinner",
          "type": "uint256"
        }
      ],
      "name": "distributePrizes",
      "outputs": [],
      "payable": false,
      "stateMutability": "nonpayable",
      "type": "function"
    },
    {
      "constant": false,
      "inputs": [],
      "name": "resetData",
      "outputs": [],
      "payable": false,
      "stateMutability": "nonpayable",
      "type": "function"
    }
  ],
  "bytecode": "0x60606040526064600455341561001457600080fd5b60405160208061096f83398101604052808051906020019091905050336000806101000a81548173ffffffffffffffffffffffffffffffffffffffff021916908373ffffffffffffffffffffffffffffffffffffffff16021790555060008114151561008257806001819055505b506108dd806100926000396000f3006060604052600436106100af576000357c0100000000000000000000000000000000000000000000000000000000900463ffffffff1680630a50e361146100b15780632ca8c6d3146100c65780634081d916146100ef57806341c0e1b514610140578063478c4e0e146101555780636ca3fc3b1461016a5780637365870b1461018d578063c38a8afd146101a5578063e08a96cd146101ce578063f71d96cb146101f7578063fe5e18531461025a575b005b34156100bc57600080fd5b6100c4610283565b005b34156100d157600080fd5b6100d96102a3565b6040518082815260200191505060405180910390f35b34156100fa57600080fd5b610126600480803573ffffffffffffffffffffffffffffffffffffffff169060200190919050506102a9565b604051808215151515815260200191505060405180910390f35b341561014b57600080fd5b61015361034d565b005b341561016057600080fd5b6101686103de565b005b341561017557600080fd5b61018b6004808035906020019091905050610400565b005b6101a36004808035906020019091905050610639565b005b34156101b057600080fd5b6101b86107a4565b6040518082815260200191505060405180910390f35b34156101d957600080fd5b6101e16107aa565b6040518082815260200191505060405180910390f35b341561020257600080fd5b61021860048080359060200190919050506107b0565b604051808273ffffffffffffffffffffffffffffffffffffffff1673ffffffffffffffffffffffffffffffffffffffff16815260200191505060405180910390f35b341561026557600080fd5b61026d6107ef565b6040518082815260200191505060405180910390f35b60006001600a4381151561029357fe5b060190506102a081610400565b50565b60035481565b600080600090505b600580549050811015610342578273ffffffffffffffffffffffffffffffffffffffff166005828154811015156102e457fe5b906000526020600020900160009054906101000a900473ffffffffffffffffffffffffffffffffffffffff1673ffffffffffffffffffffffffffffffffffffffff1614156103355760019150610347565b80806001019150506102b1565b600091505b50919050565b6000809054906101000a900473ffffffffffffffffffffffffffffffffffffffff1673ffffffffffffffffffffffffffffffffffffffff163373ffffffffffffffffffffffffffffffffffffffff1614156103dc576000809054906101000a900473ffffffffffffffffffffffffffffffffffffffff1673ffffffffffffffffffffffffffffffffffffffff16ff5b565b60006005816103ed91906107f5565b5060006002819055506000600381905550565b610408610821565b6000806000806000809450600093505b60058054905084101561055a5760058481548110151561043457fe5b906000526020600020900160009054906101000a900473ffffffffffffffffffffffffffffffffffffffff16925086600660008573ffffffffffffffffffffffffffffffffffffffff1673ffffffffffffffffffffffffffffffffffffffff1681526020019081526020016000206001015414156104fb578286866064811015156104bb57fe5b602002019073ffffffffffffffffffffffffffffffffffffffff16908173ffffffffffffffffffffffffffffffffffffffff168152505084806001019550505b600660008473ffffffffffffffffffffffffffffffffffffffff1673ffffffffffffffffffffffffffffffffffffffff168152602001908152602001600020600080820160009055600182016000905550508380600101945050610418565b600060058161056991906107f5565b50606460025481151561057857fe5b049150600090505b8481101561063057600073ffffffffffffffffffffffffffffffffffffffff1686826064811015156105ae57fe5b602002015173ffffffffffffffffffffffffffffffffffffffff161415156106235785816064811015156105de57fe5b602002015173ffffffffffffffffffffffffffffffffffffffff166108fc839081150290604051600060405180830381858888f19350505050151561062257600080fd5b5b8080600101915050610580565b50505050505050565b60001515610646336102a9565b151514151561065157fe5b600181101580156106635750600a8111155b151561066b57fe5b600154341015151561067957fe5b34600660003373ffffffffffffffffffffffffffffffffffffffff1673ffffffffffffffffffffffffffffffffffffffff1681526020019081526020016000206000018190555080600660003373ffffffffffffffffffffffffffffffffffffffff1673ffffffffffffffffffffffffffffffffffffffff1681526020019081526020016000206001018190555060016003600082825401925050819055506005805480600101828161072c9190610860565b9160005260206000209001600033909190916101000a81548173ffffffffffffffffffffffffffffffffffffffff021916908373ffffffffffffffffffffffffffffffffffffffff16021790555050346002600082825401925050819055506004546003541015156107a1576107a0610283565b5b50565b60015481565b60045481565b6005818154811015156107bf57fe5b90600052602060002090016000915054906101000a900473ffffffffffffffffffffffffffffffffffffffff1681565b60025481565b81548183558181151161081c5781836000526020600020918201910161081b919061088c565b5b505050565b610c80604051908101604052806064905b600073ffffffffffffffffffffffffffffffffffffffff168152602001906001900390816108325790505090565b81548183558181151161088757818360005260206000209182019101610886919061088c565b5b505050565b6108ae91905b808211156108aa576000816000905550600101610892565b5090565b905600a165627a7a7230582084bf43ac7dd7ad010fd8130af51a105e2818db7c6e4ad6a96cb905c86699f15e0029",
  "source": "pragma solidity ^0.4.11;\n\ncontract Casino {\n\n  address owner;\n  uint public minimumBet;\n  uint public totalBet;\n  uint public numberOfBets;\n  uint public maxAmountOfBets = 100;\n  address[] public players;\n\n  function Casino(uint _minimumBet) public {\n    owner = msg.sender;\n    if (_minimumBet != 0) \n    minimumBet = _minimumBet;\n  }\n\n  function kill() public {\n    if (msg.sender == owner)\n    selfdestruct(owner);\n  }\n\n  struct Player {\n    uint amountBet;\n    uint numberSelected;\n  }\n\n  mapping(address => Player) playerInfo;\n\n  /* Function sets the logic for making the actual Bet. */\n  function bet(uint number) payable public {\n    assert(checkPlayerExists(msg.sender) == false);\n    assert(number >= 1 && number <= 10);\n    assert(msg.value >= minimumBet);\n\n    playerInfo[msg.sender].amountBet = msg.value;\n    playerInfo[msg.sender].numberSelected = number;\n    numberOfBets += 1;\n    players.push(msg.sender);\n    totalBet += msg.value;\n\n    if (numberOfBets >= maxAmountOfBets) \n    generateNumberWinner();\n  }\n\n  /* Checks to make sure the player exists and can only play onece per game */\n  function checkPlayerExists(address player) public constant returns(bool) {\n    for (uint i = 0; i < players.length; i++) {\n      if (players[i] == player) \n      return true;\n    }\n    return false;\n  }\n\n  /* Generates a random number to decide the winner */\n  function generateNumberWinner() public {\n    uint numberGenerated = block.number % 10 + 1;\n    distributePrizes(numberGenerated);\n  }\n\n  /* Distributes Ether to winners */\n  function distributePrizes(uint numberWinner) {\n    address[100] memory winners;\n    uint count = 0;\n\n    for (uint i = 0; i < players.length; i++) {\n      address playerAddress = players[i];\n      if (playerInfo[playerAddress].numberSelected == numberWinner) {\n        winners[count] = playerAddress;\n        count++;\n      }\n      delete playerInfo[playerAddress];\n    }\n\n    players.length = 0;\n\n    uint winnerEtherAmount = totalBet / winners.length;\n\n    for (uint j = 0; j < count; j++) {\n      if (winners[j] != address(0))\n      winners[j].transfer(winnerEtherAmount);\n    }\n  }\n\n  /* Resets players after game if finished */\n  function resetData() {\n    players.length = 0;\n    totalBet = 0;\n    numberOfBets = 0;\n  }\n\n  function() payable {}\n\n}",
  "sourcePath": "/Users/shanekins/WebDev/blockshane/contracts/Casino.sol",
  "compiler": {
    "name": "solc",
    "version": "0.4.19+commit.c4cbbb05.Emscripten.clang"
  },
  "schemaVersion": "1.0.1",
  "updatedAt": "2018-02-20T12:10:41.618Z"
}